:020000040800F2
:1000000000000220712D0008CD050008CF05000872
:10001000D1050008D3050008D50500080000000040
:10002000000000000000000000000000A106000821
:10003000D70500080000000041070008A5070008D8
:10004000C12D0008C12D0008C12D0008C12D0008D8
:10005000C12D0008C12D0008BD030008C12D0008F6
:10006000C12D0008C12D0008C12D0008C12D0008B8
:10007000C12D0008C12D0008C12D0008C12D0008A8
:10008000C12D0008C12D0008C12D0008C12D000898
:10009000C12D0008C12D0008C12D0008C12D000888
:1000A000C12D0008C12D0008C12D0008C12D000878
:1000B000C12D0008C12D0008C12D0008C12D000868
:1000C000C12D0008C12D0008C12D0008C12D000858
:1000D000C12D0008C12D0008C12D0008C12D000848
:1000E000C12D0008C12D0008C12D0008C12D000838
:1000F000C12D0008C12D0008C12D0008C12D000828
:10010000C12D0008C12D0008C12D0008C12D000817
:10011000C12D0008C12D0008C12D00088D04000864
:10012000C12D0008C12D0008C12D0008C12D0008F7
:10013000C12D0008C12D0008C12D0008C12D0008E7
:10014000C12D0008C12D0008C12D0008C12D0008D7
:10015000C12D0008C12D0008C12D0008C12D0008C7
:10016000C12D0008C12D0008C12D0008C12D0008B7
:10017000C12D0008C12D0008C12D0008000000009D
:08018000C12D0008C12D00088B
:1001900053B94AB9002908BF00281CBF4FF0FF31EE
:1001A0004FF0FF3000F00CB8ADF1080C6DE904CE53
:1001B00002F042FEDDF804E0DDE9022304B07047FE
:1001C000704700BF0348044B834202D0034B03B186
:1001D0001847704718000020180000200000000099
:1001E0000548064B1B1AD90F01EBA301491002D099
:1001F000034B03B118477047180000201800002077
:100200000000000010B5064C237843B9FFF7DAFF71
:10021000044B13B10448AFF300800123237010BDD9
:100220001800002000000000F430000808B5054B5D
:100230001BB105490548AFF30080BDE80840FFF752
:10024000CFBF00BF000000001C000020F4300008F9
:1002500008B50B883BB1012B08D14FF4005104487D
:1002600002F0CBFA02E0034802F094FB08BD00BFA5
:10027000000C02409C01002008B50B88022B08D01E
:10028000032B0CD100224FF48051054802F0AFFA45
:1002900005E001224FF48051014802F0A8FA08BDA0
:1002A000000C024070B588B000240094264B1A6BF5
:1002B00042F080021A631A6B02F080020092009AE8
:1002C00001941A6B42F001021A631A6B02F00102E8
:1002D0000192019A02941A6B42F008021A631B6B96
:1002E00003F008030293029B03940494059406947C
:1002F0000794164E22464FF47041304602F077FACA
:10030000012504954FF4704303930594022306934B
:1003100003A9304602F06EF9039404940594069400
:10032000079403954FF44413049303A9084802F07B
:1003300061F922460721062002F0BCFA062002F0ED
:10034000C9FA08B070BD00BF00380240000C02407E
:100350000000024008B5024902F0CCFC08BD00BF15
:100360005102000800B583B00023019302680C4BD2
:100370009A420ED0019B4BB14FF0E0234FF08052D8
:10038000C3F8042DBFF34F8FBFF36F8F03B05DF839
:1003900004FB01AA0349044B186802F0D3FCE9E707
:1003A000001400400C3100080400002008B5024988
:1003B00002F0A0FC08BD00BF79020008164B5B6983
:1003C00013F0010F00D1704700B583B00121124B2B
:1003D000596100230193114802F002FA012817D055
:1003E0000323ADF8003001AA69460D4B186802F0EE
:1003F000A9FC019B4BB14FF0E0234FF08052C3F8B2
:10040000042DBFF34F8FBFF36F8F03B05DF804FB74
:100410000223ADF80030E6E7003C01400000024056
:100420000000002030B585B000250195144B1A6CF2
:1004300042F020021A641B6C03F020030193019B1D
:10044000104C114B236042F2CF036360A56042F26F
:100450000F73E3608023A361204602F0FFFB029547
:10046000039502A9204601F063FD2A4608213720A2
:1004700002F020FA372002F02DFA05B030BD00BF9F
:10048000003802409C0100200014004008B50248DA
:1004900002F0C8FA08BD00BF9C01002072B6FEE75A
:1004A00000B595B03022002108A802F08AFC002394
:1004B0000393049305930693079301931F4A116CCA
:1004C00041F080511164126C02F080520192019A45
:1004D00002931B4A116841F480411160126802F4D2
:1004E00080420292029A0222089201210B9110216D
:1004F0000C910E920F9308231093A823119312923C
:100500000423139308A801F05BFD98B90F2303930C
:1005100002230493002305934FF4A05306934FF452
:1005200080530793052103A801F0B4FF20B915B04B
:100530005DF804FBFFF7B2FFFFF7B0FF00380240A1
:100540000070004008B502F003FAFFF7A9FFFFF7BB
:10055000A9FEFFF767FF0B48FFF7FCFE82230A2284
:1005600002210948006802F0C9FB0848FFF71EFF96
:1005700082230A2202210648006802F0BFFB00F035
:10058000A7FFFEE7E8000020040000203400002060
:100590000000002082B0002100910B4B5A6C42F405
:1005A00080425A645A6C02F480420092009A01918F
:1005B0001A6C42F080521A641B6C03F08053019352
:1005C000019B02B0704700BF00380240FEE7FEE723
:1005D000FEE7FEE7FEE77047034AD2F8883043F4AF
:1005E0007003C2F88830704700ED00E082B000234D
:1005F00001930D4B1B68B3F1FF3F08D04FF0500340
:1006000083F31188BFF36F8FBFF34F8FFEE74FF077
:10061000500383F31188BFF36F8FBFF34F8F019B9C
:10062000002BFCD002B070470C0000200848006886
:10063000006880F308884FF0000080F3148862B6E9
:1006400061B6BFF34F8FBFF36F8F00DF00BF0000B5
:1006500008ED00E0DFF80C00016841F47001016072
:100660007047000088ED00E04FF0807340F8043CD4
:1006700021F0010140F8081C054B40F80C3C40F803
:10068000202C6FF0020340F8243C4438704700BF30
:10069000ED05000800000000000000000000000060
:1006A000074B19680868B0E8F04F80F30988BFF37A
:1006B0006F8F4FF0000080F311887047AFF3008018
:1006C000482F01204FF0500383F31188BFF36F8F41
:1006D000BFF34F8F0B4A136801331360012B00D017
:1006E00070474FF0E023D3F8043D13F0FF0FF7D02D
:1006F0004FF0500383F31188BFF36F8FBFF34F8F19
:10070000FEE700BF0C000020094B1B6843B94FF007
:10071000500383F31188BFF36F8FBFF34F8FFEE752
:10072000013B034A13600BB983F31188704700BF84
:100730000C0000200000000000000000000000008D
:10074000EFF30980BFF36F8F154B1A681EF0100F7F
:1007500008BF20ED108A20E9F04F10602DE9090054
:100760004FF0500080F31188BFF34F8FBFF36F8FAE
:1007700001F06AF84FF0000080F3118809BC196895
:100780000868B0E8F04F1EF0100F08BFB0EC108AF8
:1007900080F30988BFF36F8F704700BFAFF300800D
:1007A000482F012008B54FF0500383F31188BFF3A1
:1007B0006F8FBFF34F8F00F0E5FE28B14FF0E023BD
:1007C0004FF08052C3F8042D002383F3118808BD35
:1007D0004FF0E022002313619361054B1B6805492C
:1007E000A1FB03139B09013B53610723136170476E
:1007F00008000020D34D62104FF0E023D3F8002D05
:100800003D4B9A421CD04FF0E023D3F8002D3B4BD8
:100810009A421ED030B583B0394B1A78D2B20192C9
:10082000FF221A701B78DBB28DF803309DF803307D
:1008300003F05003334A1370334B07221A601BE056
:100840004FF0500383F31188BFF36F8FBFF34F8FC7
:10085000FEE74FF0500383F31188BFF36F8FBFF3B0
:100860004F8FFEE7284A1368013B13609DF8033061
:100870005B00DBB28DF803309DF8033013F0800F7E
:10088000F0D1214B1B68032B08D04FF0500383F3AA
:100890001188BFF36F8FBFF34F8FFEE71B021A4A19
:1008A000136003F4E0631360019BDBB2144A13701E
:1008B0004FF0E024D4F8203D43F47003C4F8203D09
:1008C000D4F8203D43F07043C4F8203DFFF780FF8B
:1008D00000250E4B1D60FFF7BDFED4F8343F43F0FA
:1008E0004043C4F8343FFFF7A1FE00F0ADFFFFF72F
:1008F0007DFE284603B030BD71C20F4170C20F416A
:1009000000E400E0E8010020E40100200C000020E9
:10091000EFF305830F2B0FD9114A9B5CDBB2114A11
:1009200012789A4208D94FF0500383F31188BFF32D
:100930006F8FBFF34F8FFEE74FF0E023D3F80C3DEE
:1009400003F4E063084A1268934208D94FF0500359
:1009500083F31188BFF36F8FBFF34F8FFEE77047AC
:10096000F0E300E0E8010020E4010020104A12F06A
:10097000070F1AD0D11D21F00701C1F5963313449A
:100980000A460C480260002141601344083B23F0F2
:1009900007030948036059601960991A5160136090
:1009A000064B1960064B196070474FF49633E8E721
:1009B0000802002000020020FC010020F4010020B9
:1009C000F8010020164B1A461B688342FBD351687E
:1009D00002EB010C844509D0416800EB010C634532
:1009E00009D00360904219D01060704740680144FC
:1009F00051601046F0E710B40A4C2468A3420BD0B3
:100A00005B681944416013681B680360904200D022
:100A100010605DF8044B70470460F7E7704700BF53
:100A200000020020FC01002070B5054600F096FD94
:100A3000354B1B685BB175B105F00703C3F11002BC
:100A4000113BAB4206D3AD1805D5002647E0FFF7B2
:100A50008DFFF0E70025002D40D02C4B1B68AB42EA
:100A60004BD32B4A146801E022461C466368AB4214
:100A700002D22368002BF7D1234B1B68A3423ED040
:100A8000166808362368136063685B1B102B10D947
:100A9000601910F0070F08D04FF0500383F311884E
:100AA000BFF36F8FBFF34F8FFEE743606560FFF7C3
:100AB00089FF626815490B689B1A0B601549096824
:100AC0008B4201D213490B6042F000426260002366
:100AD0002360114A13680133136000E0002600F020
:100AE0000DFE16F0070F0CD04FF0500383F3118862
:100AF000BFF36F8FBFF34F8FFEE70026EFE70026AF
:100B0000EDE7304670BD00BFFC010020F801002079
:100B100000020020F4010020F001002090B338B55D
:100B20000446A0F1080550F8043C002B08DB4FF008
:100B3000500383F31188BFF36F8FBFF34F8FFEE72E
:100B400050F8082C42B14FF0500383F31188BFF3E3
:100B50006F8FBFF34F8FFEE723F0004340F8043C54
:100B600000F0FCFC54F8041C074A13680B441360A3
:100B70002846FFF727FF054A13680133136000F08A
:100B8000BDFD38BD704700BFF8010020EC0100201A
:100B900000F1080343604FF0FF328260C3600361DD
:100BA00000230360704700230361704730B40D6871
:100BB000B5F1FF3F11D000F108031C465B681A68CD
:100BC000AA42FAD963684B6099608C6061600861E1
:100BD00003680133036030BC70470469F2E70369BE
:100BE000416882688A60416851605A68824206D0D2
:100BF000002202611A68013A1A6018687047826818
:100C00005A60F5E710B50446FFF75CFDA36B23B906
:100C10000124FFF779FD204610BD0024F9E770B5E7
:100C200004461546866B026C5AB903681BB1002056
:100C30000136A66370BD806800F072FF0023A360D8
:100C4000F6E76DB9406802F0E9F86368226C134476
:100C50006360A268934219D3236863602846E7E77C
:100C6000C06802F0DBF8E368226C51429B1AE36033
:100C70002268934202D2A3680B44E360022D01D0A4
:100C80000020D5E726B1013E0020D1E72846CFE776
:100C90000020CDE70346026C6AB110B50846D9685A
:100CA0001144D9609C68A14201D31968D960D96800
:100CB00002F0B4F810BD704738B50546FFF702FDE5
:100CC00095F8454064B201E0013C64B2002C0ADDB5
:100CD0006B6A43B105F1240000F044FE0028F3D014
:100CE00000F008FFF0E7FF2385F84530FFF70CFD23
:100CF000FFF7E8FC95F8444064B201E0013C64B2BF
:100D0000002C0ADD2B6943B105F1100000F02AFE2A
:100D10000028F3D000F0EEFEF0E7FF2385F8443022
:100D2000FFF7F2FC38BD38B590B10D460446C36BF1
:100D30002BB1026C0021A2FB032393B999B14FF0B0
:100D4000500383F31188BFF36F8FBFF34F8FFEE71C
:100D50004FF0500383F31188BFF36F8FBFF34F8FB2
:100D6000FEE70121EAE7FFF7ADFC2368E26B216CA7
:100D700001FB0230A0600020A0636360013A02FB27
:100D80000133E360FF2384F8443084F84530B5B97B
:100D900023691BB9FFF7B8FC012038BD04F110002E
:100DA00000F0E0FD0028F5D04FF0E0234FF0805236
:100DB000C3F8042DBFF34F8FBFF36F8FEAE704F141
:100DC0001000FFF7E5FE04F12400FFF7E1FEE1E784
:100DD00038B51D46049C0B4649B92460E063236482
:100DE00001212046FFF79FFF84F84C5038BD226058
:100DF000F4E7F0B583B060B10C4617460546002312
:100E0000A4FB001272B923B904FB05F010F1510FD5
:100E10000AD94FF0500383F31188BFF36F8FBFF3EC
:100E20004F8FFEE70123EEE75030FFF7FDFD06464A
:100E300038B100903B4600F1500221462846FFF7AA
:100E4000C7FF304603B0F0BD2DE9F84390B10F461F
:100E500016461C460546B1B1022C20D1EB6B012B86
:100E60001DD04FF0500383F31188BFF36F8FBFF392
:100E70004F8FFEE74FF0500383F31188BFF36F8F5E
:100E8000BFF34F8FFEE7036C002BE5D04FF050030C
:100E900083F31188BFF36F8FBFF34F8FFEE7FFF728
:100EA00037FDEFF311884FF0500383F31188BFF340
:100EB0006F8FBFF34F8FAA6BEB6B9A4206D3022C56
:100EC00004D0002088F31188BDE8F88395F8459098
:100ED0004FFA89F9AB6B224639462846FFF79FFE49
:100EE000B9F1FF3F0CD16B6A0BB90120EAE705F1BC
:100EF000240000F037FDD0B1DEB101203060E1E721
:100F000000F03AFB814516D2B9F17F0F06D009F106
:100F100001035BB285F845300120D3E74FF0500361
:100F200083F31188BFF36F8FBFF34F8FFEE701206C
:100F3000C8E70120C6E70120C4E7F0B585B00192FB
:100F400090B10F460446C1B100F0DAFD064600BB81
:100F5000019B002B5ED04FF0500383F31188BFF349
:100F60006F8FBFF34F8FFEE74FF0500383F311886D
:100F7000BFF36F8FBFF34F8FFEE7036C002BE3D0FF
:100F80004FF0500383F31188BFF36F8FBFF34F8F80
:100F9000FEE700263EE039462046FFF77BFE013D96
:100FA000A563236923B9FFF7AFFB012005B0F0BDAE
:100FB00004F1100000F0D6FC0028F4D04FF0E0233C
:100FC0004FF08052C3F8042DBFF34F8FBFF36F8FE4
:100FD000E9E7FFF799FB0020E8E702A800F03AFDF7
:100FE000012621E0002384F8443029E0002384F81E
:100FF00045302BE02046FFF75FFE00F07FFB09E065
:101000002046FFF759FE00F079FB2046FFF7FAFD76
:1010100000283FD1FFF756FBA56B002DBBD1019BEC
:10102000002BD6D0002ED8D0FFF76EFB00F096FA3A
:10103000FFF748FB94F844305BB2B3F1FF3FD1D0E7
:1010400094F845305BB2B3F1FF3FCFD0FFF75CFBC4
:1010500001A902A800F00AFD0028D1D12046FFF71F
:10106000D1FD0028C6D0019904F1240000F038FC1D
:101070002046FFF721FE00F041FB0028CAD14FF0C7
:10108000E0234FF08052C3F8042DBFF34F8FBFF31E
:101090006F8FBFE7002089E728B110B4044631B351
:1010A000002003460DE04FF0500383F31188BFF397
:1010B0006F8FBFF34F8FFEE70E4800EBC30014E0C5
:1010C0000133072B10D80B4A02EBC3025268A2422D
:1010D000F2D00028F4D1074A52F83320002AEFD189
:1010E000044800EBC300EBE708B1016044605DF821
:1010F000044B7047082E012070B504460D46164675
:10110000FFF7E0FA94F844305BB2B3F1FF3F0DD043
:1011100094F845305BB2B3F1FF3F0BD0FFF7F4FA20
:10112000A36B5BB12046FFF7C7FD70BD002384F8B9
:101130004430EDE7002384F84530EFE73246294696
:1011400004F1240000F0E4FBECE70000074B1B680F
:101150001B6823B9064B4FF0FF321A607047034BF0
:101160001B68DB681A68024B1A607047B82E0120B2
:10117000502E012010B50446006BFFF7CFFC20462F
:10118000FFF7CCFC10BD2DE9F84380460D4616460E
:101190009946089F0A9C9200A521206B01F011FE40
:1011A000226B06F18043013B02EB830222F007062B
:1011B00065B10022092A06D8AB5CA11881F8343049
:1011C0000BB10132F6E7002384F83D30042F08D933
:1011D0004FF0500383F31188BFF36F8FBFF34F8F2E
:1011E000FEE7E762A764201DFFF7DDFC04F11800AD
:1011F000FFF7D9FC2461C7F10507A76164624A467D
:1012000041463046FFF730FA2060099B03B11C606D
:10121000BDE8F88338B5002407E004EB84029300AE
:101220000E481844FFF7B4FC0134042CF5D90C4DDA
:101230002846FFF7ADFC0B4C2046FFF7A9FC0A48F7
:10124000FFF7A6FC0948FFF7A3FC0948FFF7A0FC3D
:10125000084B1D60084B1C6038BD00BFE42E012008
:10126000D02E0120BC2E0120A02E01208C2E01208A
:10127000742E0120B82E0120B42E012010B5044692
:10128000FFF720FA294A136801331360284B1B68C3
:101290005BB1284B1B686BB9254B1B68DA6AE36AA4
:1012A0009A4207D8224B1C6004E0214B1C60136853
:1012B000012B37D0204A1368013313602364E36A9B
:1012C00001229A401D49086802430A601C4A03EB48
:1012D000830302EB83035B68A3609868E060211DD1
:1012E00041609960E36A03EB8301880002EB8101AE
:1012F0006161115801311150FFF706FA0D4B1B685F
:101300007BB10B4B1B68DA6AE36A9A4209D24FF051
:10131000E0234FF08052C3F8042DBFF34F8FBFF38B
:101320006F8F10BDFFF776FFC4E700BF702E01205E
:10133000482F0120642E0120542E0120682E012008
:10134000E42E01200F4B1B68D3B110B5FFF7BAF99B
:101350000D4BDB68DC68201DFFF741FC0B4A13686E
:10136000013B1360074A1368013B1360FFF7CCF998
:101370002046FFF7FFFE034B1B68002BE6D110BD94
:10138000704700BF882E01208C2E0120702E012076
:1013900008B5FFF7D7FF074B1B68012BF9D94FF0B2
:1013A000E0234FF08052C3F8042DBFF34F8FBFF3FB
:1013B0006F8FEEE7E42E012070B504460D46234BF7
:1013C0001E68234B18680430FFF709FC48B9204B0E
:1013D0001B68DB6A01229A401E490B6823EA02035C
:1013E0000B60B4F1FF3F0DD03444194B1B685C60B7
:1013F000A6421DD9184B1868154B19680431FFF720
:10140000D5FB70BD002DEFD0144A5168104B186801
:10141000816018688C68C46018680430606018685F
:10142000043088601B685A61136801331360E8E771
:101430000B4B1868064B19680431FFF7B7FB094BD3
:101440001B68A342DDD9074B1C60DAE76C2E012034
:10145000482F0120682E0120B42E0120742E012077
:10146000B82E0120502E01202DE9F04385B007460B
:10147000884614461E469000FFF7D6FA18B38146F8
:101480005820FFF7D1FA0546B8B15822002101F0E3
:1014900098FCC5F830900023039302950D9B0193AF
:1014A0000C9B00933346224641463846FFF76BFEBD
:1014B0002846FFF7E3FE012007E04846FFF72EFB32
:1014C0004FF0FF3001E04FF0FF3005B0BDE8F08392
:1014D00000B583B01A4B019300230093822219496F
:1014E0001948FFF7C1FF012807D0B0F1FF3F1DD019
:1014F000164B1B6803B05DF804FB00F0F1FC0128FB
:10150000F3D14FF0500383F31188BFF36F8FBFF314
:101510004F8F0F4B4FF0FF321A600E4B01221A60B3
:101520000D4B00221A60FFF767F9E1E74FF0500317
:1015300083F31188BFF36F8FBFF34F8FFEE700BFB8
:101540004C2E012020310008911300083C31000886
:10155000502E0120642E01206C2E0120024A1368B7
:1015600001331360704700BF482E0120014B1868FB
:10157000704700BF6C2E0120014B1868704700BFF8
:10158000702E0120F8B5524B1B68002B40F099805B
:10159000504B1C6801341C60C4B94F4B1B681B685E
:1015A00043B14FF0500383F31188BFF36F8FBFF344
:1015B0004F8FFEE7484A1168484B18681060196061
:1015C000474A136801331360FFF7C0FD454B1B68A2
:1015D000A34211D90020444B1B68DB6A03EB830351
:1015E0009A00424B9B58012B00D90120404B1B68AD
:1015F000002B6BD0012069E0002037E0394B4FF021
:10160000FF321A60E7E7374B1A60E4E7D9685160A8
:1016100042E000219962116801391160DA6A012102
:101620009140344E376839433160304902EB8202D1
:101630004FEA820C8C44DCF804209A609668DE60E5
:1016400075609560DA6A02EB820C4FEA8C056E18C1
:101650005E614D5901354FEA8C0C41F80C50DA6A45
:10166000214B1B68DB6A9A4200D901201A4B1B6888
:101670001B68002BC2D0184B1B68DB68DB685A68FC
:101680009442C0D35A699D68D968A9609D684D602D
:1016900051681D1DA942B9D0002159611168013955
:1016A00011609A6A002AB9D0DE69196AB160DE69F0
:1016B0004E60566803F118018E42AAD1196A516032
:1016C000A7E70D4A1368013313600020F8BD00BF7F
:1016D000482E01206C2E0120B82E0120B42E0120AE
:1016E000582E0120502E0120482F0120E42E0120E9
:1016F0005C2E0120682E0120602E012038B54A4B57
:101700001B6843B94FF0500383F31188BFF36F8F09
:10171000BFF34F8FFEE7FEF7D5FF434B1A68013A40
:101720001A601B68002B7AD1404B1B683BB9002420
:1017300076E0196A516015E0D968516021E0002314
:101740003B4A1268002A47D0394BDB68DB689A6A4B
:10175000D869196A8160D8694860506803F1180136
:101760008842E6D0002199621168013911605A69F6
:101770009868D9688160986848605168181D8142EE
:10178000DAD000215961116801391160DA6A01214A
:101790009140284C256829432160274902EB8202A9
:1017A00001EB820252689A609468DC60606090602D
:1017B000DA6A02EB8200840001EB8000586108596C
:1017C00001300851D96A1D4A1268D26A9142B7D3D2
:1017D0001B4A01211160B3E70BB1FFF7B7FC194BAE
:1017E0001C6884B9164B1C68D4B14FF0E0234FF04D
:1017F0008052C3F8042DBFF34F8FBFF36F8F0124C6
:101800000EE0013C07D0FFF7BDFE0028F9D00C4BDD
:1018100001221A60F5E70B4B00221A60E2E7002470
:10182000FEF772FF204638BD482E0120702E0120A1
:10183000A02E0120682E0120E42E0120482F012037
:101840005C2E0120602E0120204B1B681BB1204B19
:1018500001221A6070471E4B00221A601D4B1B6844
:10186000B3FA83F3DBB2C3F11F0303EB83018A00F6
:1018700019498A5842B94FF0500383F31188BFF3D6
:101880006F8FBFF34F8FFEE7134803EB83018A008E
:10189000024451684968516003EB830C4FEA8C02A3
:1018A00008320244914209D003EB83039A000A4BA9
:1018B00013445B68DA68094B1A60704748686246EF
:1018C0009100054A0A445060EEE700BF482E01200F
:1018D0005C2E0120682E0120E42E0120482F0120DB
:1018E00058B110B50C46094A11681831FFF75EF976
:1018F00001212046FFF760FD10BD4FF0500383F338
:101900001188BFF36F8FBFF34F8FFEE7482F012081
:1019100038B5D8B18C46114605464268104B186858
:10192000C2611868946804621868183060601868AA
:10193000183090601B689D622B6801332B6009B1E1
:101940004FF0FF3C6046FFF737FD38BD4FF05003C6
:1019500083F31188BFF36F8FBFF34F8FFEE700BF94
:10196000482F0120C368DB68002B4AD030B49A6A44
:10197000D869196A8160D8694860516803F1180014
:10198000814247D0002199621168013911602B4AC8
:101990001268002A44D15A699868D96881609868A9
:1019A00048605168181D814237D000215961116883
:1019B00001391160DA6A01219140214C25682943DF
:1019C0002160204902EB820201EB820252689A6098
:1019D0009468DC6060609060DA6A02EB82008400E8
:1019E00001EB80005861085901300851DA6A164B42
:1019F0001B68DB6A9A421FD90120144B186030BC67
:101A000070474FF0500383F31188BFF36F8FBFF31C
:101A10004F8FFEE7196A5160B4E7D9685160C4E797
:101A20000B4A5168D9618C681C62606088609A6258
:101A3000116801311160D9E70020E0E7482E01204C
:101A4000682E0120E42E0120482F01205C2E012069
:101A5000A02E0120034B1B680360034B1B684360EF
:101A6000704700BF582E01206C2E0120F8B5B8B188
:101A70000C460546E9B1FEF725FE1C4B19686B685C
:101A8000C81A2268B2F1FF3F2AD0194E36682F6873
:101A9000B74217D08B4215D800232360012420E0E1
:101AA0004FF0500383F31188BFF36F8FBFF34F8F55
:101AB000FEE74FF0500383F31188BFF36F8FBFF33E
:101AC0004F8FFEE7824203D800232360012408E001
:101AD0005B1A134423602846FFF7BCFF002400E094
:101AE0000024FEF711FE2046F8BD00BF6C2E012039
:101AF000582E0120014B01221A6070475C2E0120F4
:101B0000054B1B6833B1054B1B680BB100207047B8
:101B10000220704701207047642E0120482E0120CA
:101B2000002851D070B50446294B1B68834208D069
:101B30004FF0500383F31188BFF36F8FBFF34F8FC4
:101B4000FEE7C36C43B94FF0500383F31188BFF332
:101B50006F8FBFF34F8FFEE7013BC364C16A826C96
:101B6000914233D00BB1002070BD051D2846FFF710
:101B700036F838B9E36A01229A4016490B6823EA1D
:101B800002030B60A36CE362C3F10502A2610120B2
:101B900000FA03F20F490E6832430A600E4A03EB63
:101BA000830302EB83035B68A3609968E1604D6087
:101BB0009D60E36A03EB83018D0002EB81016161AB
:101BC000515901445151CFE7002070470020CBE725
:101BD000482F0120682E0120E42E0120064B1A68B0
:101BE00013682BB90123036023B9D36818687047C1
:101BF0000023F8E7002070475C2F012008B5416002
:101C0000006191420CD8D21A83699A4201D3012013
:101C100008BD011D094B1868FEF7C8FF0020F7E753
:101C20009A4201D2994206D2011D054B1868FEF76F
:101C3000BDFF0020ECE70120EAE700BF582F01209C
:101C40005C2F012070B504460D46164604E0A369DA
:101C50001D44236A20469847A1692B4632462944F1
:101C60002046FFF7CBFF0028F1D170BD70B50546C7
:101C70000E460D4B1B68DB68DC68201DFEF7AFFFCE
:101C800094F8283013F0040F07D123F0010384F8EF
:101C90002830236A2046984770BD324629462046A0
:101CA000FFF7D0FFF5E700BF5C2F012008B505E086
:101CB000DB684FF0FF311868FFF7D8FF054B1B6852
:101CC0001A68002AF4D1044A1068024908601360B7
:101CD00008BD00BF5C2F0120582F012038B50546F4
:101CE000FFF744FC0446074B1B68834205D80023DA
:101CF0002B60044B1C60204638BDFFF7D7FF012343
:101D00002B60F6E74C2F012070B582B006460C46DA
:101D1000FFF724FC01A8FFF7E1FF019B33BB054659
:101D2000E4B9B04213D22246711B124B1868FFF778
:101D3000E3F9FFF7E3FCD8B94FF0E0234FF080520E
:101D4000C3F8042DBFF34F8FBFF36F8F10E0FFF781
:101D5000D5FC29463046FFF789FF09E0064A12689C
:101D600012680AB90124DEE71C46DCE7FFF7C6FC6F
:101D700002B070BD542F0120582F012030B585B01E
:101D8000002201A9384B1868FFF7D7F8002869D05E
:101D9000019B002BF4DB039C636913B1201DFEF74C
:101DA0001EFF6846FFF79AFF0546019B013B082B83
:101DB000E6D8DFE803F0050529304905052930009C
:101DC00094F8283043F0010384F82830029BA1697D
:101DD000024619442046FFF711FF0028D0D094F89E
:101DE000283013F0040F07D123F0010384F82830C2
:101DF000236A20469847C3E7A3692A4602991944F3
:101E00002046FFF71FFFF3E794F8283023F0010383
:101E100084F82830B4E794F8283043F0010384F8BC
:101E200028300299A16131B103460246014420469F
:101E3000FFF7E4FEA4E74FF0500383F31188BFF3EC
:101E40006F8FBFF34F8FFEE794F8283013F0020F27
:101E500004D023F0010384F8283091E72046FEF7F0
:101E60005DFE8DE705B030BD542F012000B583B075
:101E700001A8FFF7B3FE0199FFF746FFFFF77EFFCA
:101E8000F6E7000038B5FEF71DFC0F4B1B6813B1D9
:101E9000FEF73AFC38BD0D4D2846FEF779FE0C4C96
:101EA0002046FEF775FE0B4B1D600B4B1C6000229D
:101EB0000C210A20FEF79DFF034B18600028E7D095
:101EC0000649FFF7E9F8E3E7542F0120742F0120BA
:101ED000602F01205C2F0120582F0120283100089D
:101EE00000B583B0FFF7CEFF0D4B1B685BB10D4B08
:101EF00001930223009300234FF482720A490B4896
:101F0000FFF7B2FA40B94FF0500383F31188BFF3E3
:101F10006F8FBFF34F8FFEE703B05DF804FB00BF88
:101F2000542F0120502F0120303100086D1E000871
:101F300090F83C20012A3DD010B40346012280F8DD
:101F40003C20022280F83D2002685068946820F00E
:101F5000700C086840EA0C0050601A68164882420B
:101F60001AD0B2F1804F17D0A0F57C40824213D036
:101F700000F5806082420FD000F5806082420BD075
:101F800000F57840824207D000F57050824203D0BD
:101F9000A0F59430824204D124F0800449682143A2
:101FA0009160012283F83D20002083F83C005DF819
:101FB000044B704702207047000001407047704793
:101FC000002800F0E08170B582B00446036813F089
:101FD000010F3BD09F4B9B6803F00C03042B2CD0CC
:101FE0009C4B9B6803F00C03082B21D06368B3F56E
:101FF000803F4FD0B3F5A02F52D0964B1A6822F4F1
:1020000080321A601A6822F480221A606368002BFA
:1020100050D000F0B7FC05468E4B1B6813F4003F10
:1020200014D100F0AFFC401B6428F5D90320B1E1C6
:10203000884B5B6813F4800FD8D0864B1B6813F471
:10204000003F03D06368002B00F09F81236813F0EA
:10205000020F54D07F4B9B6813F00C0F3ED07D4B8A
:102060009B6803F00C03082B33D0E368002B68D087
:10207000794B01221A6000F085FC0546754B1B6800
:1020800013F0020F54D100F07DFC401B0228F5D95B
:1020900003207FE16F4A136843F480331360B5E790
:1020A0006C4B1A6842F480221A601A6842F480323B
:1020B0001A60ABE700F066FC0546664B1B6813F43C
:1020C000003FC3D000F05EFC401B6428F5D903201C
:1020D00060E1604B5B6813F4800FC6D15D4B1B68F9
:1020E00013F0020F03D0E368012B40F05081594AEE
:1020F000136823F0F803216943EAC10313602368DE
:1021000013F0080F42D063696BB3534B0122C3F83D
:10211000802E00F037FC05464E4B5B6F13F0020F2C
:1021200034D100F02FFC401B0228F5D9032031E107
:10213000484A136823F0F803216943EAC103136096
:10214000DDE7454B00221A6000F01CFC0546414BC0
:102150001B6813F0020FD2D000F014FC401B0228C1
:10216000F5D9032016E13C4B0022C3F8802E00F085
:1021700009FC0546374B5B6F13F0020F06D000F0E9
:1021800001FC401B0228F5D9032003E1236813F06A
:10219000040F77D02F4B1B6C13F0805F33D10023DB
:1021A00001932C4B1A6C42F080521A641B6C03F0A2
:1021B00080530193019B0125284B1B6813F4807FFA
:1021C00023D0A368012B34D0052B38D0214B1A6FB4
:1021D00022F001021A671A6F22F004021A67A3683C
:1021E000002B3DD000F0CEFB06461A4B1B6F13F0C0
:1021F000020F46D100F0C6FB801B41F288339842A3
:10220000F3D90320C6E00025D6E7144A136843F447
:102210008073136000F0B6FB0646104B1B6813F486
:10222000807FCED100F0AEFB801B0228F5D90320C1
:10223000B0E0084A136F43F001031367CFE7054B83
:102240001A6F42F004021A671A6F42F001021A670D
:10225000C5E700BF00380240000047420070004060
:1022600000F090FB0646524B1B6F13F0020F08D094
:1022700000F088FB801B41F288339842F3D9032099
:1022800088E0EDB9A369002B00F08380484A92688A
:1022900002F00C02082A51D0022B17D0454B002225
:1022A0001A6600F06FFB0446414B1B6813F0007F79
:1022B00042D000F067FB001B0228F5D9032069E03B
:1022C0003B4A136C23F080531364DBE7394B002245
:1022D0001A6600F057FB0546354B1B6813F0007F6C
:1022E00006D000F04FFB401B0228F5D9032051E037
:1022F000E369226A1343626A43EA8213A26A5208BC
:10230000013A43EA0243E26A43EA0263284A53601D
:10231000284B01221A6600F035FB0446244B1B684B
:1023200013F0007F06D100F02DFB001B0228F5D929
:1023300003202FE000202DE000202BE0012B2BD0EC
:102340001B4B5B6803F48001E269914226D103F0E4
:102350003F02216A8A4223D1616A47F6C0721A405D
:10236000B2EB811F1ED103F44031A26A5208013A38
:10237000B1EB024F18D103F07063E26AB3EB026F66
:1023800014D1002006E001207047012002E0012066
:1023900000E0002002B070BD0120FBE70120F9E75A
:1023A0000120F7E70120F5E70120F3E70120F1E73D
:1023B000003802400000474208B5334B9B6803F0E9
:1023C0000C03042B5BD0082B5BD12F4B5A6802F017
:1023D0003F025B6813F4800F2CD02B4B5868C0F37E
:1023E00088104FEA401CBCEB000C6EEB0E0E4FEA5F
:1023F0008E1343EA9C634FEA8C11B1EB0C0163EB43
:102400000E03DB0043EA5173C90011EB000C43F1EA
:102410000003590200234FEA4C2041EADC51FDF74A
:10242000B7FE194B5B68C3F3014301335B00B0FB9C
:10243000F3F008BD144B5868C0F388104FEA401CF5
:10244000BCEB000C6EEB0E0E4FEA8E1343EA9C635E
:102450004FEA8C11B1EB0C0163EB0E03DB0043EA96
:102460005173C90011EB000C43F1000399020023E2
:102470004FEA8C2041EA9C51FDF78AFED1E70348E0
:10248000D7E70348D5E700BF0038024000127A00C2
:102490000024F400002800F09B8070B50D4604462F
:1024A0004F4B1B6803F007038B4208D2CBB24C4A58
:1024B0001370136803F007038B4240F08B8023688E
:1024C00013F0020F17D013F0040F04D0454A93689D
:1024D00043F4E0539360236813F0080F04D0414A9B
:1024E000936843F4604393603E4A936823F0F0039B
:1024F000A1680B439360236813F0010F32D0636827
:10250000012B21D09A1E012A25D9364A126812F0D1
:10251000020F61D033498A6822F0030213438B60B3
:1025200000F030FA06462F4B9B6803F00C036268FC
:10253000B3EB820F16D000F025FA801B41F28833EE
:102540009842F0D9032042E0264A126812F4003F74
:10255000E0D101203BE0234A126812F0007FD9D17C
:10256000012034E01E4B1B6803F00703AB4207D980
:10257000EAB21B4B1A701B6803F00703AB422DD164
:10258000236813F0040F06D0164A936823F4E0532F
:10259000E1680B439360236813F0080F07D0114ADA
:1025A000936823F46043216943EAC1039360FFF712
:1025B00003FF0C4B9B68C3F303130B4AD35CD84057
:1025C0000A4B18600A4B186800F09CF9002070BD97
:1025D000012070470120FAE70120F8E70120F6E723
:1025E000003C024000380240103100080800002082
:1025F0001400002000230F2B00F2E98070B582B098
:1026000065E085684FEA430E032404FA0EF425EAD8
:102610000405CC6804FA0EF42C438460446824EA70
:1026200002044A68C2F300129A40224342605CE00E
:10263000DC08083450F8242003F00705AD004FF003
:102640000F0E0EFA05FE22EA0E0E0A69AA4042EAB1
:102650000E0240F824205CE0072200E0002202FA8B
:102660000EF22A4302345A4D45F82420594A946800
:102670006FEA0C0224EA0C054E6816F4801F01D0A4
:102680004CEA0405534CA560E46802EA04054E6870
:1026900016F4001F01D04CEA04054E4CE560646856
:1026A00002EA04054E6816F4003F01D04CEA040526
:1026B000484C6560246822404D6815F4803F01D085
:1026C0004CEA0402434C226001330F2B7DD80122D7
:1026D0009A400C6804EA020C32EA0404F4D14C6813
:1026E00004F00304013C012C8BD94A6802F0030278
:1026F000032A09D0C4685D000322AA4024EA020428
:102700008A68AA402243C2604A6802F00302022A91
:102710008ED004684FEA430E032202FA0EF224EA36
:1027200002044A6802F0030202FA0EF22243026037
:102730004A6812F4403FC7D000220192264A546CE6
:1027400044F480445464526C02F480420192019A31
:102750009C08A51C1E4A52F8255003F0030E4FEAB0
:102760008E0E0F2202FA0EF225EA02051B4A904253
:102770003FF474AF02F5806290421AD002F5806295
:10278000904218D002F58062904216D002F5806225
:10279000904214D002F58062904212D002F580621D
:1027A000904210D002F5806290423FF455AF08226B
:1027B00055E7012253E7022251E703224FE70422A3
:1027C0004DE705224BE7062249E702B070BD70478E
:1027D00000380140003C0140003802400000024047
:1027E0000369194201D001207047002070470AB1E7
:1027F00081617047090481617047436901EA0302FE
:1028000021EA030141EA024181617047002807DBA8
:1028100000F01F02400901239340024A42F8203091
:10282000704700BF00E100E0002808DB0901C9B2E1
:1028300000F1604000F5614080F80013704700F03F
:102840000F000901C9B2014B1954704714ED00E0A3
:1028500000B500F00700C0F1070CBCF1040F28BF61
:102860004FF0040C031D062B0FD9C31E4FF0FF3E83
:102870000EFA0CF021EA000199400EFA03FE22EA5A
:102880000E0241EA02005DF804FB0023EEE70000BF
:10289000074AD36823F4E0631B041B0C000200F416
:1028A000E060034343F0BF6343F40033D3607047F9
:1028B00000ED00E010B50446054BD868C0F30220D7
:1028C000FFF7C6FF01462046FFF7AEFF10BD00BF71
:1028D00000ED00E008B5FFF799FF08BD0138B0F141
:1028E000807F0BD24FF0E0235861054AF02182F837
:1028F00023100020986107221A6170470120704759
:1029000000ED00E010B504460E4B1A784FF47A73D0
:10291000B3FBF2F30C4A1068B0FBF3F0FFF7DEFFF5
:1029200068B90F2C01D901200AE0002221464FF09E
:10293000FF30FFF7BFFF054B1C60002000E00120C7
:1029400010BD00BF1000002008000020140000206F
:1029500008B50B4B1A6842F400721A601A6842F408
:1029600080621A601A6842F480721A600320FFF7CE
:102970008FFF0F20FFF7C6FFFDF70CFE002008BDFC
:10298000003C0240014B1868704700BF882F0120AF
:102990007047000090F83D30DBB2012B37D10223A5
:1029A00080F83D300268D36843F00103D3600368C8
:1029B000194A934220D0B3F1804F1DD0A2F57C423A
:1029C000934219D002F58062934215D002F58062DD
:1029D000934211D002F5784293420DD002F5705225
:1029E000934209D0A2F59432934205D01A6842F07E
:1029F00001021A60002070479A6802F00702062A56
:102A000007D01A6842F001021A60002070470120C6
:102A100070470020704700BF0000014070477047BA
:102A20007047704770B504460368DE681D6915F08D
:102A3000020F10D016F0020F0DD06FF002021A61D3
:102A40000123037703689B6913F0030F5ED0FFF740
:102A5000E6FF0023237715F0040F12D016F0040FC1
:102A60000FD023686FF004021A61022323772368D2
:102A70009B6913F4407F4FD02046FFF7D0FF00231F
:102A8000237715F0080F12D016F0080F0FD0236827
:102A90006FF008021A61042323772368DB6913F0BF
:102AA000030F40D02046FFF7BAFF0023237715F02D
:102AB000100F12D016F0100F0FD023686FF0100215
:102AC0001A61082323772368DB6913F4407F31D030
:102AD0002046FFF7A4FF0023237715F0010F02D053
:102AE00016F0010F2DD115F0800F02D016F0800FD7
:102AF0002FD115F0400F02D016F0400F31D115F054
:102B0000200F02D016F0200F33D170BDFFF786FFE3
:102B10002046FFF785FF9CE72046FFF77FFF204612
:102B2000FFF77EFFABE72046FFF778FF2046FFF771
:102B300077FFBAE72046FFF771FF2046FFF770FFE7
:102B4000C9E723686FF001021A612046FDF70AFC0D
:102B5000C9E723686FF080021A612046FFF72FFA59
:102B6000C7E723686FF040021A612046FFF759FF5C
:102B7000C5E723686FF020021A612046FFF71EFAAE
:102B8000C3E700000368344A904212D0B0F1804F8E
:102B90000FD0A2F57C4290420BD002F580629042A9
:102BA00007D002F58062904203D002F5784290424D
:102BB00003D123F070034A681343274A90422AD076
:102BC000B0F1804F27D0A2F57C42904223D002F58D
:102BD000806290421FD002F5806290421BD002F5C5
:102BE0007842904217D002F57052904213D002F50D
:102BF000806290420FD002F5806290420BD0A2F525
:102C00009832904207D002F58062904203D002F5DC
:102C10008062904203D123F44073CA68134323F0C7
:102C200080034A69134303608B68C3620B68836245
:102C3000094B984203D003F58063984201D10B6998
:102C4000036301234361036913F0010F03D0036998
:102C500023F00103036170470000014040B310B549
:102C6000044690F83D30F3B1022384F83D3021460C
:102C700051F8040BFFF786FF012384F8463084F8EF
:102C80003E3084F83F3084F8403084F8413084F896
:102C9000423084F8433084F8443084F8453084F876
:102CA0003D30002010BD80F83C30FFF771FEDBE7BF
:102CB0000120704790B110B582B00446D0F8B03012
:102CC0000B4998474FF0FF3201A9E06DFEF735F947
:102CD000D4F8B030019920469847F3E74FF05003FD
:102CE00083F31188BFF36F8FBFF34F8FFEE700BFF1
:102CF00040310008C0F8B0107047000070B582B0D5
:102D000004460E4610461D4600220421FEF771F8C7
:102D1000E065019400962346AAB208490848FEF7E8
:102D2000A3FB23680BB102B070BD4FF0500383F3D7
:102D30001188BFF36F8FBFF34F8FFEE73831000864
:102D4000B52C000800B583B00191002301A9C06D26
:102D5000FEF77AF8012808D04FF0500383F311886A
:102D6000BFF36F8FBFF34F8FFEE703B05DF804FB37
:102D7000DFF834D0FDF730FC0C480D490D4A002334
:102D800002E0D458C4500433C4188C42F9D30A4A20
:102D90000A4C002301E013600432A242FBD300F08E
:102DA00019F8FDF7CFFB704700000220000000205B
:102DB0001800002054310008180000208C2F01203A
:102DC000FEE702440346934200D1704703F8011B1B
:102DD000F9E7000070B50D4D0D4C641BA4100026E2
:102DE000A64209D10B4D0C4C00F084F9641BA410D1
:102DF0000026A64205D170BD55F8043B9847013620
:102E0000EEE755F8043B98470136F2E74C310008ED
:102E10004C3100084C310008503100080A449142FE
:102E200000F1FF3300D1704710B511F8014B03F8E2
:102E3000014F9142F9D110BD2DE9F047089D0E4692
:102E400004460F46002B4AD194468C45B2FA82F2D2
:102E500060D942B1C2F12003974020FA03F30CFA83
:102E600002FC1F4394404FEA1C4E1FFA8CF6B7FB3E
:102E7000FEF1230C0EFB117743EA074301FB06F03A
:102E800098420AD91CEB030301F1FF3780F015814A
:102E9000984240F21281023963441B1AA4B2B3FB78
:102EA000FEF00EFB103344EA034400FB06F6A64294
:102EB0000AD91CEB040400F1FF3380F00081A64224
:102EC00040F2FD806444023840EA0140A41B002126
:102ED0001DB1D4400023C5E90043BDE8F0878B4213
:102EE00005D90DB1C5E9000100210846F5E7B3FA9F
:102EF00083F1002946D1B34202D3824200F2F58029
:102F0000841A66EB030201201746002DE5D0C5E9BF
:102F10000047E2E7002A40F09380A1EB0C034FEA60
:102F20001C471FFA8CFE0121B3FBF7F607FB163096
:102F3000230C43EA00430EFB06F0984208D91CEB31
:102F4000030306F1FF3802D2984200F2D0804646D1
:102F50001B1AA4B2B3FBF7F007FB103344EA034497
:102F60000EFB00FEA64508D91CEB040400F1FF335C
:102F700002D2A64500F2B6801846A4EB0E0440EA41
:102F80000640A5E7C1F120078B4022FA07FC4CEA76
:102F9000030C06FA01FE20FA07F426FA07F344EAC6
:102FA0000E0400FA01F84FEA1C404FEA1449B3FB43
:102FB000F0FE1FFA8CF600FB1E3349EA03430EFBBA
:102FC00006F9994502FA01F20BD91CEB03030EF145
:102FD000FF3A80F08580994540F28280AEF1020E82
:102FE0006344A3EB0909A4B2B9FBF0F300FB139906
:102FF00044EA094403FB06F6A64208D91CEB040484
:1030000003F1FF3068D2A64266D9023B644443EA2A
:103010000E40A41BA0FB02E6B4427346B14652D355
:103020004FD05DB1B8EB030264EB090404FA07F773
:1030300022FA01F31F43CC40C5E9007400214CE79C
:10304000C2F1200120FA01F30CFA02FC26FA01F188
:10305000964033434FEA1C471FFA8CFEB1FBF7F052
:1030600007FB1016190C41EA064100FB0EF68E42D2
:1030700004FA02F408D91CEB010100F1FF382DD24B
:103080008E422BD902386144891B9BB2B1FBF7F603
:1030900007FB161143EA014306FB0EF1994208D9DA
:1030A0001CEB030306F1FF3814D2994212D9023EF9
:1030B00063445B1A46EA004136E73946EDE61846B6
:1030C00002E7F045ADD2BEEB020366EB0C06013819
:1030D000B146A6E74646ECE7034698E74046D3E705
:1030E000D6467EE76444023847E708460DE7023ECD
:1030F00063442DE7F8B500BFF8BC08BC9E46704796
:0C310000F8B500BFF8BC08BC9E46704744
:10310C0001000000000000000000000001020304A8
:10311C000607080949444C4500000000546D7251E3
:10312C0000000000546D722053766300414F000084
:08313C00040000000000000087
:08314400F4FCFF7F0100000014
:04314C002D02000848
:04315000050200086C
:1031540034000020E80000200024F400AAAAAAAA4F
:08316400010000001000000052
:0400000508002D7151
:00000001FF
